{
  "_format": "hh-sol-artifact-1",
  "contractName": "GasContract",
  "sourceName": "contracts/Gas.sol",
  "abi": [
    {
      "inputs": [
        {
          "internalType": "address[]",
          "name": "_admins",
          "type": "address[]"
        },
        {
          "internalType": "uint256",
          "name": "_totalSupply",
          "type": "uint256"
        }
      ],
      "stateMutability": "nonpayable",
      "type": "constructor"
    },
    {
      "inputs": [],
      "name": "AmountIsZero",
      "type": "error"
    },
    {
      "inputs": [],
      "name": "AmountSmallerThan3",
      "type": "error"
    },
    {
      "inputs": [],
      "name": "IdIsZero",
      "type": "error"
    },
    {
      "inputs": [],
      "name": "IncorrectWhitelistTier",
      "type": "error"
    },
    {
      "inputs": [],
      "name": "InsufficientBalance",
      "type": "error"
    },
    {
      "inputs": [],
      "name": "IsZeroAddress",
      "type": "error"
    },
    {
      "inputs": [],
      "name": "OnlyAdminOrOwner",
      "type": "error"
    },
    {
      "inputs": [],
      "name": "OriginatorNotSender",
      "type": "error"
    },
    {
      "inputs": [],
      "name": "RecipientNameTooLong",
      "type": "error"
    },
    {
      "inputs": [],
      "name": "UserNotWhitelisted",
      "type": "error"
    },
    {
      "anonymous": false,
      "inputs": [
        {
          "indexed": false,
          "internalType": "address",
          "name": "userAddress",
          "type": "address"
        },
        {
          "indexed": false,
          "internalType": "uint256",
          "name": "tier",
          "type": "uint256"
        }
      ],
      "name": "AddedToWhitelist",
      "type": "event"
    },
    {
      "anonymous": false,
      "inputs": [
        {
          "indexed": true,
          "internalType": "address",
          "name": "previousOwner",
          "type": "address"
        },
        {
          "indexed": true,
          "internalType": "address",
          "name": "newOwner",
          "type": "address"
        }
      ],
      "name": "OwnershipTransferred",
      "type": "event"
    },
    {
      "anonymous": false,
      "inputs": [
        {
          "indexed": false,
          "internalType": "address",
          "name": "recipient",
          "type": "address"
        },
        {
          "indexed": false,
          "internalType": "uint256",
          "name": "amount",
          "type": "uint256"
        }
      ],
      "name": "Transfer",
      "type": "event"
    },
    {
      "anonymous": false,
      "inputs": [
        {
          "indexed": true,
          "internalType": "address",
          "name": "",
          "type": "address"
        },
        {
          "indexed": true,
          "internalType": "uint256",
          "name": "",
          "type": "uint256"
        }
      ],
      "name": "supplyChanged",
      "type": "event"
    },
    {
      "inputs": [
        {
          "internalType": "address",
          "name": "_userAddrs",
          "type": "address"
        },
        {
          "internalType": "uint256",
          "name": "_tier",
          "type": "uint256"
        }
      ],
      "name": "addToWhitelist",
      "outputs": [],
      "stateMutability": "nonpayable",
      "type": "function"
    },
    {
      "inputs": [
        {
          "internalType": "uint256",
          "name": "",
          "type": "uint256"
        }
      ],
      "name": "administrators",
      "outputs": [
        {
          "internalType": "address",
          "name": "",
          "type": "address"
        }
      ],
      "stateMutability": "view",
      "type": "function"
    },
    {
      "inputs": [
        {
          "internalType": "address",
          "name": "_user",
          "type": "address"
        }
      ],
      "name": "balanceOf",
      "outputs": [
        {
          "internalType": "uint256",
          "name": "balance_",
          "type": "uint256"
        }
      ],
      "stateMutability": "view",
      "type": "function"
    },
    {
      "inputs": [
        {
          "internalType": "address",
          "name": "",
          "type": "address"
        }
      ],
      "name": "balances",
      "outputs": [
        {
          "internalType": "uint256",
          "name": "",
          "type": "uint256"
        }
      ],
      "stateMutability": "view",
      "type": "function"
    },
    {
      "inputs": [
        {
          "internalType": "address",
          "name": "_user",
          "type": "address"
        }
      ],
      "name": "getPayments",
      "outputs": [
        {
          "components": [
            {
              "internalType": "uint8",
              "name": "paymentType",
              "type": "uint8"
            },
            {
              "internalType": "bool",
              "name": "adminUpdated",
              "type": "bool"
            },
            {
              "internalType": "bytes8",
              "name": "recipientName",
              "type": "bytes8"
            },
            {
              "internalType": "address",
              "name": "recipient",
              "type": "address"
            },
            {
              "internalType": "uint256",
              "name": "paymentID",
              "type": "uint256"
            },
            {
              "internalType": "uint256",
              "name": "amount",
              "type": "uint256"
            }
          ],
          "internalType": "struct GasContract.Payment[]",
          "name": "payments_",
          "type": "tuple[]"
        }
      ],
      "stateMutability": "view",
      "type": "function"
    },
    {
      "inputs": [],
      "name": "getTradingMode",
      "outputs": [
        {
          "internalType": "bool",
          "name": "mode_",
          "type": "bool"
        }
      ],
      "stateMutability": "pure",
      "type": "function"
    },
    {
      "inputs": [],
      "name": "owner",
      "outputs": [
        {
          "internalType": "address",
          "name": "",
          "type": "address"
        }
      ],
      "stateMutability": "view",
      "type": "function"
    },
    {
      "inputs": [
        {
          "internalType": "address",
          "name": "",
          "type": "address"
        },
        {
          "internalType": "uint256",
          "name": "",
          "type": "uint256"
        }
      ],
      "name": "payments",
      "outputs": [
        {
          "internalType": "uint8",
          "name": "paymentType",
          "type": "uint8"
        },
        {
          "internalType": "bool",
          "name": "adminUpdated",
          "type": "bool"
        },
        {
          "internalType": "bytes8",
          "name": "recipientName",
          "type": "bytes8"
        },
        {
          "internalType": "address",
          "name": "recipient",
          "type": "address"
        },
        {
          "internalType": "uint256",
          "name": "paymentID",
          "type": "uint256"
        },
        {
          "internalType": "uint256",
          "name": "amount",
          "type": "uint256"
        }
      ],
      "stateMutability": "view",
      "type": "function"
    },
    {
      "inputs": [],
      "name": "renounceOwnership",
      "outputs": [],
      "stateMutability": "nonpayable",
      "type": "function"
    },
    {
      "inputs": [],
      "name": "totalSupply",
      "outputs": [
        {
          "internalType": "uint256",
          "name": "",
          "type": "uint256"
        }
      ],
      "stateMutability": "view",
      "type": "function"
    },
    {
      "inputs": [
        {
          "internalType": "address",
          "name": "_recipient",
          "type": "address"
        },
        {
          "internalType": "uint256",
          "name": "_amount",
          "type": "uint256"
        },
        {
          "internalType": "string",
          "name": "_name",
          "type": "string"
        }
      ],
      "name": "transfer",
      "outputs": [
        {
          "internalType": "bool",
          "name": "status_",
          "type": "bool"
        }
      ],
      "stateMutability": "nonpayable",
      "type": "function"
    },
    {
      "inputs": [
        {
          "internalType": "address",
          "name": "newOwner",
          "type": "address"
        }
      ],
      "name": "transferOwnership",
      "outputs": [],
      "stateMutability": "nonpayable",
      "type": "function"
    },
    {
      "inputs": [
        {
          "internalType": "address",
          "name": "_user",
          "type": "address"
        },
        {
          "internalType": "uint256",
          "name": "_ID",
          "type": "uint256"
        },
        {
          "internalType": "uint256",
          "name": "_amount",
          "type": "uint256"
        },
        {
          "internalType": "uint8",
          "name": "_type",
          "type": "uint8"
        }
      ],
      "name": "updatePayment",
      "outputs": [],
      "stateMutability": "nonpayable",
      "type": "function"
    },
    {
      "inputs": [
        {
          "internalType": "address",
          "name": "",
          "type": "address"
        }
      ],
      "name": "whiteListStruct",
      "outputs": [
        {
          "internalType": "uint256",
          "name": "valueA",
          "type": "uint256"
        },
        {
          "internalType": "uint256",
          "name": "bigValue",
          "type": "uint256"
        },
        {
          "internalType": "uint256",
          "name": "valueB",
          "type": "uint256"
        }
      ],
      "stateMutability": "view",
      "type": "function"
    },
    {
      "inputs": [
        {
          "internalType": "address",
          "name": "_recipient",
          "type": "address"
        },
        {
          "internalType": "uint256",
          "name": "_amount",
          "type": "uint256"
        },
        {
          "components": [
            {
              "internalType": "uint256",
              "name": "valueA",
              "type": "uint256"
            },
            {
              "internalType": "uint256",
              "name": "bigValue",
              "type": "uint256"
            },
            {
              "internalType": "uint256",
              "name": "valueB",
              "type": "uint256"
            }
          ],
          "internalType": "struct GasContract.ImportantStruct",
          "name": "_struct",
          "type": "tuple"
        }
      ],
      "name": "whiteTransfer",
      "outputs": [],
      "stateMutability": "nonpayable",
      "type": "function"
    },
    {
      "inputs": [
        {
          "internalType": "address",
          "name": "",
          "type": "address"
        }
      ],
      "name": "whitelist",
      "outputs": [
        {
          "internalType": "uint256",
          "name": "",
          "type": "uint256"
        }
      ],
      "stateMutability": "view",
      "type": "function"
    }
  ],
  "bytecode": "0x608060405260006001553480156200001657600080fd5b506040516200156d3803806200156d833981016040819052620000399162000209565b620000443362000186565b600181905560005b60058110156200017d5760006001600160a01b0316838281518110620000765762000076620002e3565b60200260200101516001600160a01b03161462000174576000838281518110620000a457620000a4620002e3565b602002602001015190508060068360058110620000c557620000c5620002e3565b0180546001600160a01b0319166001600160a01b0392831617905581166000818152600560205260409020805460ff191660011790553390036200013d57336000908152600260205260408082208590555184916001600160a01b038416916000805160206200154d8339815191529190a362000172565b6001600160a01b038116600081815260026020526040808220829055519091906000805160206200154d833981519152908390a35b505b6001016200004c565b505050620002f9565b600080546001600160a01b038381166001600160a01b0319831681178455604051919092169283917f8be0079c531659141344cd1fd0a4f28419497f9722a3daafe3b4186f6b6457e09190a35050565b634e487b7160e01b600052604160045260246000fd5b80516001600160a01b03811681146200020457600080fd5b919050565b600080604083850312156200021d57600080fd5b82516001600160401b03808211156200023557600080fd5b818501915085601f8301126200024a57600080fd5b8151602082821115620002615762000261620001d6565b8160051b604051601f19603f83011681018181108682111715620002895762000289620001d6565b604052928352818301935084810182019289841115620002a857600080fd5b948201945b83861015620002d157620002c186620001ec565b85529482019493820193620002ad565b97909101519698969750505050505050565b634e487b7160e01b600052603260045260246000fd5b61124480620003096000396000f3fe608060405234801561001057600080fd5b50600436106101005760003560e01c806370a08231116100975780639b19251a116100665780639b19251a14610266578063ab63385c14610286578063d89d1510146102e2578063f2fde38b146102f557600080fd5b806370a0823114610209578063715018a6146102325780638da5cb5b1461023a5780639a9f83831461025f57600080fd5b806327e235e3116100d357806327e235e3146101695780634e86eb161461018957806356b8c7241461019c5780635de45813146101bf57600080fd5b806318160ddd146101055780631d6a171114610121578063214405fc1461014157806327df565a14610156575b600080fd5b61010e60015481565b6040519081526020015b60405180910390f35b61013461012f366004610f52565b610308565b6040516101189190610f74565b61015461014f366004611004565b610403565b005b61015461016436600461102e565b61051c565b61010e610177366004610f52565b60026020526000908152604090205481565b6101546101973660046110c5565b6106bb565b6101af6101aa366004611113565b610a61565b6040519015158152602001610118565b6101ee6101cd366004610f52565b600b6020526000908152604090208054600182015460029092015490919083565b60408051938452602084019290925290820152606001610118565b61010e610217366004610f52565b6001600160a01b031660009081526002602052604090205490565b610154610d21565b6000546001600160a01b03165b6040516001600160a01b039091168152602001610118565b60016101af565b61010e610274366004610f52565b60046020526000908152604090205481565b610299610294366004611004565b610d35565b6040805160ff909716875294151560208701526001600160c01b0319909316938501939093526001600160a01b03166060840152608083019190915260a082015260c001610118565b6102476102f036600461119a565b610da4565b610154610303366004610f52565b610dc4565b60606001600160a01b03821661033157604051631326d6d560e01b815260040160405180910390fd5b6001600160a01b038216600090815260036020908152604080832080548251818502810185019093528083529193909284015b828210156103f85760008481526020908190206040805160c0808201835260038702909301805460ff808216845261010082041615158387015262010000810490941b6001600160c01b031916928201929092526a01000000000000000000009092046001600160a01b03166060830152600180820154608084015260029091015460a08301529083529092019101610364565b505050509050919050565b6000546001600160a01b031633036104785760ff811015610431578160005260046020526040600020818155505b604080516001600160a01b0384168152602081018390527f62c1e066774519db9fe35767c15fc33df2f016675b7cc0c330ed185f286a2d5291015b60405180910390a15050565b3360009081526005602052604090205460ff16156104ea5760ff8110156104315760008281526004602090815260409182902083905581516001600160a01b03851681529081018390527f62c1e066774519db9fe35767c15fc33df2f016675b7cc0c330ed185f286a2d52910161046c565b6040517f61685c2b00000000000000000000000000000000000000000000000000000000815260040160405180910390fd5b336000818152600460205260409020546001811015610567576040517f2ba75b2500000000000000000000000000000000000000000000000000000000815260040160405180910390fd5b60038111156105a2576040517f9fdf115e00000000000000000000000000000000000000000000000000000000815260040160405180910390fd5b33600090815260026020526040902054848110156105d357604051631e9acf1760e31b815260040160405180910390fd5b6003851161060d576040517ff672dfca00000000000000000000000000000000000000000000000000000000815260040160405180910390fd5b336000908152600460205260409020548161062887826111c9565b905061063482826111e0565b33600090815260026020526040808220929092556001600160a01b038a1681522054905061066287826111e0565b905061066e82826111c9565b6001600160a01b0390981660009081526002602081815260408084209b909b55338352600b8152918a90208851815591880151600183015596909801519790950196909655505050505050565b6000546001600160a01b0316330361088b5760018310156106ef5760405163ee7efd5760e01b815260040160405180910390fd5b6001821015610711576040516310eb483f60e21b815260040160405180910390fd5b6001600160a01b03841661073857604051631326d6d560e01b815260040160405180910390fd5b60005b6001600160a01b038516600090815260036020526040902054811015610885576001600160a01b0385166000908152600360205260409020805485919083908110610788576107886111f8565b9060005260206000209060030201600101540361087d576001600160a01b0385166000908152600360205260409020805460019190839081106107cd576107cd6111f8565b6000918252602080832060039283020180549415156101000261ff0019909516949094179093556001600160a01b03881682529091526040902080548391908390811061081c5761081c6111f8565b60009182526020808320600392830201805460ff191660ff95909516949094179093556001600160a01b038816825290915260409020805484919083908110610867576108676111f8565b9060005260206000209060030201600201819055505b60010161073b565b50610a5b565b3360009081526005602052604090205460ff16156104ea5760018310156108c55760405163ee7efd5760e01b815260040160405180910390fd5b60018210156108e7576040516310eb483f60e21b815260040160405180910390fd5b6001600160a01b03841661090e57604051631326d6d560e01b815260040160405180910390fd5b60005b6001600160a01b038516600090815260036020526040902054811015610885576001600160a01b038516600090815260036020526040902080548591908390811061095e5761095e6111f8565b90600052602060002090600302016001015403610a53576001600160a01b0385166000908152600360205260409020805460019190839081106109a3576109a36111f8565b6000918252602080832060039283020180549415156101000261ff0019909516949094179093556001600160a01b0388168252909152604090208054839190839081106109f2576109f26111f8565b60009182526020808320600392830201805460ff191660ff95909516949094179093556001600160a01b038816825290915260409020805484919083908110610a3d57610a3d6111f8565b9060005260206000209060030201600201819055505b600101610911565b50505050565b3360009081526002602052604081205484811015610a9257604051631e9acf1760e31b815260040160405180910390fd5b6008831115610acd576040517f4ebd961a00000000000000000000000000000000000000000000000000000000815260040160405180910390fd5b610ad785826111c9565b33600090815260026020526040808220929092556001600160a01b03881681529081208054879290610b0a9084906111e0565b9091555050604080516001600160a01b0388168152602081018790527f69ca02dd4edd7bf0a4abb9ed3b7af3f14778db5d61921c7dc7cd545266326de2910160405180910390a1336000908152600360205260408120805490919015610bb65781546000908390610b7d906001906111c9565b81548110610b8d57610b8d6111f8565b9060005260206000209060030201905080600101546001610bae91906111e0565b915050610bba565b5060015b6040805160c08101825260018152600060208083018290528351601f8a0182900482028101820185528981529193830191610c0f918b908b9081908401838280828437600092019190915250610e5992505050565b6001600160c01b03191681526001600160a01b03808c1660208084019190915260408084019690965260609283018c905233600090815260038083528782208054600181810183559184529284902087519390920290910180549387015198870151958701519094166a0100000000000000000000027fffff0000000000000000000000000000000000000000ffffffffffffffffffff60c09690961c6201000002959095167fffff00000000000000000000000000000000000000000000000000000000ffff9815156101000261ffff1990941660ff9093169290921792909217969096169590951791909117815560808201518185015560a0909101516002909101555092505050949350505050565b610d29610e74565b610d336000610ece565b565b60036020528160005260406000208181548110610d5157600080fd5b600091825260209091206003909102018054600182015460029092015460ff8083169550610100830416935062010000820460c01b926a01000000000000000000009092046001600160a01b0316919086565b60068160058110610db457600080fd5b01546001600160a01b0316905081565b610dcc610e74565b6001600160a01b038116610e4d5760405162461bcd60e51b815260206004820152602660248201527f4f776e61626c653a206e6577206f776e657220697320746865207a65726f206160448201527f646472657373000000000000000000000000000000000000000000000000000060648201526084015b60405180910390fd5b610e5681610ece565b50565b60008151600003610e6c57506000919050565b506020015190565b6000546001600160a01b03163314610d335760405162461bcd60e51b815260206004820181905260248201527f4f776e61626c653a2063616c6c6572206973206e6f7420746865206f776e65726044820152606401610e44565b600080546001600160a01b038381167fffffffffffffffffffffffff0000000000000000000000000000000000000000831681178455604051919092169283917f8be0079c531659141344cd1fd0a4f28419497f9722a3daafe3b4186f6b6457e09190a35050565b80356001600160a01b0381168114610f4d57600080fd5b919050565b600060208284031215610f6457600080fd5b610f6d82610f36565b9392505050565b602080825282518282018190526000919060409081850190868401855b82811015610ff7578151805160ff16855286810151151587860152858101516001600160c01b031916868601526060808201516001600160a01b0316908601526080808201519086015260a0908101519085015260c09093019290850190600101610f91565b5091979650505050505050565b6000806040838503121561101757600080fd5b61102083610f36565b946020939093013593505050565b600080600083850360a081121561104457600080fd5b61104d85610f36565b9350602085013592506060603f198201121561106857600080fd5b506040516060810181811067ffffffffffffffff8211171561109a57634e487b7160e01b600052604160045260246000fd5b8060405250604085013581526060850135602082015260808501356040820152809150509250925092565b600080600080608085870312156110db57600080fd5b6110e485610f36565b93506020850135925060408501359150606085013560ff8116811461110857600080fd5b939692955090935050565b6000806000806060858703121561112957600080fd5b61113285610f36565b935060208501359250604085013567ffffffffffffffff8082111561115657600080fd5b818701915087601f83011261116a57600080fd5b81358181111561117957600080fd5b88602082850101111561118b57600080fd5b95989497505060200194505050565b6000602082840312156111ac57600080fd5b5035919050565b634e487b7160e01b600052601160045260246000fd5b6000828210156111db576111db6111b3565b500390565b600082198211156111f3576111f36111b3565b500190565b634e487b7160e01b600052603260045260246000fdfea2646970667358221220ac5fdd43730cdfd8f73d5d772c1d8ed81e1231c269335f7c558322ca3db4391e64736f6c634300080e0033fbd610cf0373947747ba15effd5e459c81db984f8723671458c0e8624428ab04",
  "linkReferences": {},
  "deployedLinkReferences": {}
}